{
  "_format": "hh-sol-artifact-1",
  "contractName": "AccessControlVulnerable",
  "sourceName": "contracts/Vulnerable/AccessControl.sol",
  "abi": [
    {
      "inputs": [],
      "stateMutability": "nonpayable",
      "type": "constructor"
    },
    {
      "inputs": [
        {
          "internalType": "address",
          "name": "newOwner",
          "type": "address"
        }
      ],
      "name": "changeOwner",
      "outputs": [],
      "stateMutability": "nonpayable",
      "type": "function"
    },
    {
      "inputs": [
        {
          "internalType": "address",
          "name": "to",
          "type": "address"
        },
        {
          "internalType": "uint256",
          "name": "amount",
          "type": "uint256"
        }
      ],
      "name": "mint",
      "outputs": [],
      "stateMutability": "nonpayable",
      "type": "function"
    },
    {
      "inputs": [],
      "name": "owner",
      "outputs": [
        {
          "internalType": "address",
          "name": "",
          "type": "address"
        }
      ],
      "stateMutability": "view",
      "type": "function"
    }
  ],
  "bytecode": "0x608060405234801561001057600080fd5b50336000806101000a81548173ffffffffffffffffffffffffffffffffffffffff021916908373ffffffffffffffffffffffffffffffffffffffff16021790555061026d806100606000396000f3fe608060405234801561001057600080fd5b50600436106100415760003560e01c806340c10f19146100465780638da5cb5b14610062578063a6f9dae114610080575b600080fd5b610060600480360381019061005b91906101a0565b61009c565b005b61006a6100a0565b60405161007791906101ef565b60405180910390f35b61009a6004803603810190610095919061020a565b6100c4565b005b5050565b60008054906101000a900473ffffffffffffffffffffffffffffffffffffffff1681565b806000806101000a81548173ffffffffffffffffffffffffffffffffffffffff021916908373ffffffffffffffffffffffffffffffffffffffff16021790555050565b600080fd5b600073ffffffffffffffffffffffffffffffffffffffff82169050919050565b60006101378261010c565b9050919050565b6101478161012c565b811461015257600080fd5b50565b6000813590506101648161013e565b92915050565b6000819050919050565b61017d8161016a565b811461018857600080fd5b50565b60008135905061019a81610174565b92915050565b600080604083850312156101b7576101b6610107565b5b60006101c585828601610155565b92505060206101d68582860161018b565b9150509250929050565b6101e98161012c565b82525050565b600060208201905061020460008301846101e0565b92915050565b6000602082840312156102205761021f610107565b5b600061022e84828501610155565b9150509291505056fea26469706673582212208d7e297a567582fd0d60fa3b8cf743009217e9643078ad3e985e0551d9d22d9b64736f6c63430008180033",
  "linkReferences": {},
  "deployedLinkReferences": {}
}