{
  "_format": "hh-sol-artifact-1",
  "contractName": "OverflowVulnerable",
  "sourceName": "contracts/Vulnerable/Overflow.sol",
  "abi": [
    {
      "inputs": [],
      "name": "balance",
      "outputs": [
        {
          "internalType": "uint8",
          "name": "",
          "type": "uint8"
        }
      ],
      "stateMutability": "view",
      "type": "function"
    },
    {
      "inputs": [
        {
          "internalType": "uint8",
          "name": "amount",
          "type": "uint8"
        }
      ],
      "name": "deposit",
      "outputs": [],
      "stateMutability": "nonpayable",
      "type": "function"
    }
  ],
  "bytecode": "0x608060405234801561001057600080fd5b506101ed806100206000396000f3fe608060405234801561001057600080fd5b50600436106100365760003560e01c8063b69ef8a81461003b578063ebe41b7314610059575b600080fd5b610043610075565b60405161005091906100da565b60405180910390f35b610073600480360381019061006e9190610126565b610086565b005b60008054906101000a900460ff1681565b806000808282829054906101000a900460ff166100a39190610182565b92506101000a81548160ff021916908360ff16021790555050565b600060ff82169050919050565b6100d4816100be565b82525050565b60006020820190506100ef60008301846100cb565b92915050565b600080fd5b610103816100be565b811461010e57600080fd5b50565b600081359050610120816100fa565b92915050565b60006020828403121561013c5761013b6100f5565b5b600061014a84828501610111565b91505092915050565b7f4e487b7100000000000000000000000000000000000000000000000000000000600052601160045260246000fd5b600061018d826100be565b9150610198836100be565b9250828201905060ff8111156101b1576101b0610153565b5b9291505056fea26469706673582212208d57c3b953809547c03f0c2e32d36e2b7a405eab6f44377ee6d038204287fc1f64736f6c63430008180033",
  "linkReferences": {},
  "deployedLinkReferences": {}
}